:03000000020100FA
:04000B001201933219
:04001B001201C932D3
:1001000075200A75210675220A752306C228790012
:100110007A007B127C107DFA7E647590FFC2927526
:10012000A800D2AFD2A9D2AB758912758A06758C98
:1001300006D28C758B00758D00C28E89B08AA08B1B
:1001400024302705D28002014BC280302605D2819F
:10015000020155C281302505D28202015FC2823080
:100160002405D283020169C283302305D2840201AF
:1001700073C284302205D28502017DC285302105FB
:10018000D286020187C286302005D287020191C241
:100190008780A8202817309126C28E7E64C228DC72
:1001A00027DD051201D87DFA7C100201C8309109C3
:1001B000C28E7E64C2280201C81201D80201C8D2D0
:1001C0008EDC051201D87C1022DE06D228C28E7E7B
:1001D00064758B00758D002209D5202C12020975DB
:1001E000200AD5212379000A752106D5221A120288
:1001F0001075220AD523117A000B752306BB0A035A
:10020000120217BB13027B012209090909090922FD
:0E0210000A0A0A0A0A0A220B0B0B0B0B0B221E
:00000001FF
